{
  "_format": "hh-sol-artifact-1",
  "contractName": "Votaric",
  "sourceName": "contracts/Votaric.sol",
  "abi": [
    {
      "inputs": [],
      "stateMutability": "nonpayable",
      "type": "constructor"
    },
    {
      "anonymous": false,
      "inputs": [
        {
          "indexed": false,
          "internalType": "uint256",
          "name": "id",
          "type": "uint256"
        },
        {
          "indexed": false,
          "internalType": "bool",
          "name": "passed",
          "type": "bool"
        }
      ],
      "name": "countProposal",
      "type": "event"
    },
    {
      "anonymous": false,
      "inputs": [
        {
          "indexed": false,
          "internalType": "uint256",
          "name": "votesUp",
          "type": "uint256"
        },
        {
          "indexed": false,
          "internalType": "uint256",
          "name": "votesDown",
          "type": "uint256"
        },
        {
          "indexed": false,
          "internalType": "address",
          "name": "voter",
          "type": "address"
        },
        {
          "indexed": false,
          "internalType": "uint256",
          "name": "proposal",
          "type": "uint256"
        },
        {
          "indexed": false,
          "internalType": "bool",
          "name": "votedFor",
          "type": "bool"
        }
      ],
      "name": "newVote",
      "type": "event"
    },
    {
      "anonymous": false,
      "inputs": [
        {
          "indexed": false,
          "internalType": "uint256",
          "name": "id",
          "type": "uint256"
        },
        {
          "indexed": false,
          "internalType": "string",
          "name": "description",
          "type": "string"
        },
        {
          "indexed": false,
          "internalType": "address",
          "name": "proposer",
          "type": "address"
        }
      ],
      "name": "proposalCreated",
      "type": "event"
    },
    {
      "inputs": [],
      "name": "addMember",
      "outputs": [],
      "stateMutability": "nonpayable",
      "type": "function"
    },
    {
      "inputs": [],
      "name": "chairPerson",
      "outputs": [
        {
          "internalType": "address",
          "name": "",
          "type": "address"
        }
      ],
      "stateMutability": "view",
      "type": "function"
    },
    {
      "inputs": [
        {
          "internalType": "string",
          "name": "_description",
          "type": "string"
        }
      ],
      "name": "createProposal",
      "outputs": [],
      "stateMutability": "nonpayable",
      "type": "function"
    },
    {
      "inputs": [
        {
          "internalType": "uint256",
          "name": "_id",
          "type": "uint256"
        }
      ],
      "name": "finalProposalDecision",
      "outputs": [],
      "stateMutability": "nonpayable",
      "type": "function"
    },
    {
      "inputs": [
        {
          "internalType": "address",
          "name": "",
          "type": "address"
        }
      ],
      "name": "membership",
      "outputs": [
        {
          "internalType": "bool",
          "name": "",
          "type": "bool"
        }
      ],
      "stateMutability": "view",
      "type": "function"
    },
    {
      "inputs": [],
      "name": "proposalCount",
      "outputs": [
        {
          "internalType": "uint256",
          "name": "",
          "type": "uint256"
        }
      ],
      "stateMutability": "view",
      "type": "function"
    },
    {
      "inputs": [
        {
          "internalType": "uint256",
          "name": "",
          "type": "uint256"
        }
      ],
      "name": "proposals",
      "outputs": [
        {
          "internalType": "uint256",
          "name": "id",
          "type": "uint256"
        },
        {
          "internalType": "bool",
          "name": "exists",
          "type": "bool"
        },
        {
          "internalType": "uint256",
          "name": "deadline",
          "type": "uint256"
        },
        {
          "internalType": "string",
          "name": "description",
          "type": "string"
        },
        {
          "internalType": "uint256",
          "name": "votesUp",
          "type": "uint256"
        },
        {
          "internalType": "uint256",
          "name": "votesDown",
          "type": "uint256"
        },
        {
          "internalType": "uint256",
          "name": "totalVoteCount",
          "type": "uint256"
        },
        {
          "internalType": "bool",
          "name": "countsConducted",
          "type": "bool"
        },
        {
          "internalType": "bool",
          "name": "passed",
          "type": "bool"
        }
      ],
      "stateMutability": "view",
      "type": "function"
    },
    {
      "inputs": [
        {
          "internalType": "uint256",
          "name": "_id",
          "type": "uint256"
        },
        {
          "internalType": "bool",
          "name": "_vote",
          "type": "bool"
        }
      ],
      "name": "voteOnProposal",
      "outputs": [],
      "stateMutability": "nonpayable",
      "type": "function"
    }
  ],
  "bytecode": "0x60806040523480156200001157600080fd5b50336000806101000a81548173ffffffffffffffffffffffffffffffffffffffff021916908373ffffffffffffffffffffffffffffffffffffffff1602179055506001806000828254620000669190620000cb565b925050819055506001600260003373ffffffffffffffffffffffffffffffffffffffff1673ffffffffffffffffffffffffffffffffffffffff16815260200190815260200160002060006101000a81548160ff02191690831515021790555062000161565b6000620000d88262000128565b9150620000e58362000128565b9250827fffffffffffffffffffffffffffffffffffffffffffffffffffffffffffffffff038211156200011d576200011c62000132565b5b828201905092915050565b6000819050919050565b7f4e487b7100000000000000000000000000000000000000000000000000000000600052601160045260246000fd5b61164480620001716000396000f3fe608060405234801561001057600080fd5b50600436106100885760003560e01c80635ee9b4801161005b5780635ee9b48014610107578063772ccf5d14610123578063d4d4b5ac14610153578063da35c6641461017157610088565b8063013cf08b1461008d578063029d010d146100c55780631614665c146100cf57806349c2a1a6146100eb575b600080fd5b6100a760048036038101906100a29190610bf7565b61018f565b6040516100bc99989796959493929190610f9f565b60405180910390f35b6100cd61028c565b005b6100e960048036038101906100e49190610c24565b6102e6565b005b61010560048036038101906101009190610bae565b610565565b005b610121600480360381019061011c9190610bf7565b610675565b005b61013d60048036038101906101389190610b81565b6108f4565b60405161014a9190610e20565b60405180910390f35b61015b610914565b6040516101689190610e05565b60405180910390f35b610179610938565b6040516101869190610f5b565b60405180910390f35b60036020528060005260406000206000915090508060000154908060010160009054906101000a900460ff16908060020154908060030180546101d190611216565b80601f01602080910402602001604051908101604052809291908181526020018280546101fd90611216565b801561024a5780601f1061021f5761010080835404028352916020019161024a565b820191906000526020600020905b81548152906001019060200180831161022d57829003601f168201915b5050505050908060040154908060050154908060060154908060080160009054906101000a900460ff16908060080160019054906101000a900460ff16905089565b6001600260003373ffffffffffffffffffffffffffffffffffffffff1673ffffffffffffffffffffffffffffffffffffffff16815260200190815260200160002060006101000a81548160ff021916908315150217905550565b6003600083815260200190815260200160002060010160009054906101000a900460ff16610349576040517f08c379a000000000000000000000000000000000000000000000000000000000815260040161034090610e9b565b60405180910390fd5b6103523361093e565b610391576040517f08c379a000000000000000000000000000000000000000000000000000000000815260040161038890610e3b565b60405180910390fd5b61039b82336109ac565b156103db576040517f08c379a00000000000000000000000000000000000000000000000000000000081526004016103d290610f1b565b60405180910390fd5b6003600083815260200190815260200160002060020154431115610434576040517f08c379a000000000000000000000000000000000000000000000000000000000815260040161042b90610e5b565b60405180910390fd5b6000600360008481526020019081526020016000209050811561048a5780600401600081548092919061046690611279565b919050555080600601600081548092919061048090611279565b91905055506104bf565b80600501600081548092919061049f90611279565b91905055508060060160008154809291906104b990611279565b91905055505b60018160070160003373ffffffffffffffffffffffffffffffffffffffff1673ffffffffffffffffffffffffffffffffffffffff16815260200190815260200160002060006101000a81548160ff0219169083151502179055507f97a3ed91f0b116dc155f238ac92aa5b825720a7bb096f53156e05d9c8ab6a30a81600401548260050154338686604051610558959493929190611071565b60405180910390a1505050565b61056e3361093e565b6105ad576040517f08c379a00000000000000000000000000000000000000000000000000000000081526004016105a490610e7b565b60405180910390fd5b60006003600060015481526020019081526020016000209050600154816000018190555060018160010160006101000a81548160ff02191690831515021790555081816003019080519060200190610606929190610a2f565b506064436106149190611136565b81600201819055507f714aa979410b0af635e3d28a85a5b282ef1db3f1f2052962359cbdb2c53747d1600154833360405161065193929190611033565b60405180910390a16001600081548092919061066c90611279565b91905055505050565b60008054906101000a900473ffffffffffffffffffffffffffffffffffffffff1673ffffffffffffffffffffffffffffffffffffffff163373ffffffffffffffffffffffffffffffffffffffff1614610703576040517f08c379a00000000000000000000000000000000000000000000000000000000081526004016106fa90610ebb565b60405180910390fd5b6003600082815260200190815260200160002060010160009054906101000a900460ff16610766576040517f08c379a000000000000000000000000000000000000000000000000000000000815260040161075d90610f3b565b60405180910390fd5b600360008281526020019081526020016000206002015443116107be576040517f08c379a00000000000000000000000000000000000000000000000000000000081526004016107b590610efb565b60405180910390fd5b6003600082815260200190815260200160002060080160009054906101000a900460ff1615610822576040517f08c379a000000000000000000000000000000000000000000000000000000000815260040161081990610edb565b60405180910390fd5b600060036000838152602001908152602001600020905080600501548160040154111561086b5760018160080160016101000a81548160ff021916908315150217905550610889565b60008160080160016101000a81548160ff0219169083151502179055505b60018160080160006101000a81548160ff0219169083151502179055507fe4fe9d06b16870012d1f4321e8af346162e76b3a6e561dcc6c4eebb726515697828260080160019054906101000a900460ff166040516108e8929190610f76565b60405180910390a15050565b60026020528060005260406000206000915054906101000a900460ff1681565b60008054906101000a900473ffffffffffffffffffffffffffffffffffffffff1681565b60015481565b600060011515600260008473ffffffffffffffffffffffffffffffffffffffff1673ffffffffffffffffffffffffffffffffffffffff16815260200190815260200160002060009054906101000a900460ff16151514156109a257600190506109a7565b600090505b919050565b6000600115156003600085815260200190815260200160002060070160008473ffffffffffffffffffffffffffffffffffffffff1673ffffffffffffffffffffffffffffffffffffffff16815260200190815260200160002060009054906101000a900460ff1615151415610a245760019050610a29565b600090505b92915050565b828054610a3b90611216565b90600052602060002090601f016020900481019282610a5d5760008555610aa4565b82601f10610a7657805160ff1916838001178555610aa4565b82800160010185558215610aa4579182015b82811115610aa3578251825591602001919060010190610a88565b5b509050610ab19190610ab5565b5090565b5b80821115610ace576000816000905550600101610ab6565b5090565b6000610ae5610ae0846110e9565b6110c4565b905082815260208101848484011115610b0157610b00611354565b5b610b0c8482856111d4565b509392505050565b600081359050610b23816115c9565b92915050565b600081359050610b38816115e0565b92915050565b600082601f830112610b5357610b5261134f565b5b8135610b63848260208601610ad2565b91505092915050565b600081359050610b7b816115f7565b92915050565b600060208284031215610b9757610b9661135e565b5b6000610ba584828501610b14565b91505092915050565b600060208284031215610bc457610bc361135e565b5b600082013567ffffffffffffffff811115610be257610be1611359565b5b610bee84828501610b3e565b91505092915050565b600060208284031215610c0d57610c0c61135e565b5b6000610c1b84828501610b6c565b91505092915050565b60008060408385031215610c3b57610c3a61135e565b5b6000610c4985828601610b6c565b9250506020610c5a85828601610b29565b9150509250929050565b610c6d8161118c565b82525050565b610c7c8161119e565b82525050565b6000610c8d8261111a565b610c978185611125565b9350610ca78185602086016111e3565b610cb081611363565b840191505092915050565b6000610cc8601583611125565b9150610cd382611374565b602082019050919050565b6000610ceb601683611125565b9150610cf68261139d565b602082019050919050565b6000610d0e602983611125565b9150610d19826113c6565b604082019050919050565b6000610d31602183611125565b9150610d3c82611415565b604082019050919050565b6000610d54603183611125565b9150610d5f82611464565b604082019050919050565b6000610d77602c83611125565b9150610d82826114b3565b604082019050919050565b6000610d9a601983611125565b9150610da582611502565b602082019050919050565b6000610dbd602883611125565b9150610dc88261152b565b604082019050919050565b6000610de0602183611125565b9150610deb8261157a565b604082019050919050565b610dff816111ca565b82525050565b6000602082019050610e1a6000830184610c64565b92915050565b6000602082019050610e356000830184610c73565b92915050565b60006020820190508181036000830152610e5481610cbb565b9050919050565b60006020820190508181036000830152610e7481610cde565b9050919050565b60006020820190508181036000830152610e9481610d01565b9050919050565b60006020820190508181036000830152610eb481610d24565b9050919050565b60006020820190508181036000830152610ed481610d47565b9050919050565b60006020820190508181036000830152610ef481610d6a565b9050919050565b60006020820190508181036000830152610f1481610d8d565b9050919050565b60006020820190508181036000830152610f3481610db0565b9050919050565b60006020820190508181036000830152610f5481610dd3565b9050919050565b6000602082019050610f706000830184610df6565b92915050565b6000604082019050610f8b6000830185610df6565b610f986020830184610c73565b9392505050565b600061012082019050610fb5600083018c610df6565b610fc2602083018b610c73565b610fcf604083018a610df6565b8181036060830152610fe18189610c82565b9050610ff06080830188610df6565b610ffd60a0830187610df6565b61100a60c0830186610df6565b61101760e0830185610c73565b611025610100830184610c73565b9a9950505050505050505050565b60006060820190506110486000830186610df6565b818103602083015261105a8185610c82565b90506110696040830184610c64565b949350505050565b600060a0820190506110866000830188610df6565b6110936020830187610df6565b6110a06040830186610c64565b6110ad6060830185610df6565b6110ba6080830184610c73565b9695505050505050565b60006110ce6110df565b90506110da8282611248565b919050565b6000604051905090565b600067ffffffffffffffff82111561110457611103611320565b5b61110d82611363565b9050602081019050919050565b600081519050919050565b600082825260208201905092915050565b6000611141826111ca565b915061114c836111ca565b9250827fffffffffffffffffffffffffffffffffffffffffffffffffffffffffffffffff03821115611181576111806112c2565b5b828201905092915050565b6000611197826111aa565b9050919050565b60008115159050919050565b600073ffffffffffffffffffffffffffffffffffffffff82169050919050565b6000819050919050565b82818337600083830152505050565b60005b838110156112015780820151818401526020810190506111e6565b83811115611210576000848401525b50505050565b6000600282049050600182168061122e57607f821691505b60208210811415611242576112416112f1565b5b50919050565b61125182611363565b810181811067ffffffffffffffff821117156112705761126f611320565b5b80604052505050565b6000611284826111ca565b91507fffffffffffffffffffffffffffffffffffffffffffffffffffffffffffffffff8214156112b7576112b66112c2565b5b600182019050919050565b7f4e487b7100000000000000000000000000000000000000000000000000000000600052601160045260246000fd5b7f4e487b7100000000000000000000000000000000000000000000000000000000600052602260045260246000fd5b7f4e487b7100000000000000000000000000000000000000000000000000000000600052604160045260246000fd5b600080fd5b600080fd5b600080fd5b600080fd5b6000601f19601f8301169050919050565b7f6f6e6c79204d656d626572732063616e20766f74650000000000000000000000600082015250565b7f566f74696e672074696d65206861732070617373656400000000000000000000600082015250565b7f596f7520617265206e6f742061206d656d626572206f662074686973206f726760008201527f616e697a6174696f6e0000000000000000000000000000000000000000000000602082015250565b7f5468657265206973206e6f2070726f706f73616c20776974682074686973206960008201527f6400000000000000000000000000000000000000000000000000000000000000602082015250565b7f4f6e6c7920746865204368616972506572736f6e2063616e20636865636b207460008201527f68652066696e616c206465636973696f6e000000000000000000000000000000602082015250565b7f46696e616c204465636973696f6e20686173206265656e206d616465206f6e2060008201527f7468652070726f706f73616c0000000000000000000000000000000000000000602082015250565b7f446561646c696e6520686173206e6f74206265656e206d657400000000000000600082015250565b7f596f7520616c72656164792068617665206120766f7465206f6e20746869732060008201527f70726f706f73616c000000000000000000000000000000000000000000000000602082015250565b7f5468657265206973206e6f2070726f706f73616c20776974682074686174206960008201527f6400000000000000000000000000000000000000000000000000000000000000602082015250565b6115d28161118c565b81146115dd57600080fd5b50565b6115e98161119e565b81146115f457600080fd5b50565b611600816111ca565b811461160b57600080fd5b5056fea2646970667358221220311bf60e0c7f1f9bad4cb266964989abec1d1b8338d6e97990218c470772b9fb64736f6c63430008070033",
  "linkReferences": {},
  "deployedLinkReferences": {}
}