{
  "_format": "hh-sol-artifact-1",
  "contractName": "Votaric",
  "sourceName": "contracts/Votaric.sol",
  "abi": [
    {
      "inputs": [],
      "stateMutability": "nonpayable",
      "type": "constructor"
    },
    {
      "anonymous": false,
      "inputs": [
        {
          "indexed": false,
          "internalType": "uint256",
          "name": "id",
          "type": "uint256"
        },
        {
          "indexed": false,
          "internalType": "bool",
          "name": "passed",
          "type": "bool"
        }
      ],
      "name": "countProposal",
      "type": "event"
    },
    {
      "anonymous": false,
      "inputs": [
        {
          "indexed": false,
          "internalType": "uint256",
          "name": "votesUp",
          "type": "uint256"
        },
        {
          "indexed": false,
          "internalType": "uint256",
          "name": "votesDown",
          "type": "uint256"
        },
        {
          "indexed": false,
          "internalType": "address",
          "name": "voter",
          "type": "address"
        },
        {
          "indexed": false,
          "internalType": "uint256",
          "name": "proposal",
          "type": "uint256"
        },
        {
          "indexed": false,
          "internalType": "bool",
          "name": "votedFor",
          "type": "bool"
        }
      ],
      "name": "newVote",
      "type": "event"
    },
    {
      "anonymous": false,
      "inputs": [
        {
          "indexed": false,
          "internalType": "uint256",
          "name": "id",
          "type": "uint256"
        },
        {
          "indexed": false,
          "internalType": "string",
          "name": "description",
          "type": "string"
        },
        {
          "indexed": false,
          "internalType": "address",
          "name": "proposer",
          "type": "address"
        }
      ],
      "name": "proposalCreated",
      "type": "event"
    },
    {
      "inputs": [],
      "name": "addMember",
      "outputs": [],
      "stateMutability": "nonpayable",
      "type": "function"
    },
    {
      "inputs": [],
      "name": "chairPerson",
      "outputs": [
        {
          "internalType": "address",
          "name": "",
          "type": "address"
        }
      ],
      "stateMutability": "view",
      "type": "function"
    },
    {
      "inputs": [
        {
          "internalType": "string",
          "name": "_description",
          "type": "string"
        }
      ],
      "name": "createProposal",
      "outputs": [],
      "stateMutability": "nonpayable",
      "type": "function"
    },
    {
      "inputs": [
        {
          "internalType": "uint256",
          "name": "_id",
          "type": "uint256"
        }
      ],
      "name": "finalProposalDecision",
      "outputs": [],
      "stateMutability": "nonpayable",
      "type": "function"
    },
    {
      "inputs": [
        {
          "internalType": "address",
          "name": "",
          "type": "address"
        }
      ],
      "name": "membership",
      "outputs": [
        {
          "internalType": "bool",
          "name": "",
          "type": "bool"
        }
      ],
      "stateMutability": "view",
      "type": "function"
    },
    {
      "inputs": [],
      "name": "proposalCount",
      "outputs": [
        {
          "internalType": "uint256",
          "name": "",
          "type": "uint256"
        }
      ],
      "stateMutability": "view",
      "type": "function"
    },
    {
      "inputs": [
        {
          "internalType": "uint256",
          "name": "",
          "type": "uint256"
        }
      ],
      "name": "proposals",
      "outputs": [
        {
          "internalType": "uint256",
          "name": "id",
          "type": "uint256"
        },
        {
          "internalType": "bool",
          "name": "exists",
          "type": "bool"
        },
        {
          "internalType": "uint256",
          "name": "deadline",
          "type": "uint256"
        },
        {
          "internalType": "string",
          "name": "description",
          "type": "string"
        },
        {
          "internalType": "uint256",
          "name": "votesUp",
          "type": "uint256"
        },
        {
          "internalType": "uint256",
          "name": "votesDown",
          "type": "uint256"
        },
        {
          "internalType": "uint256",
          "name": "totalVoteCount",
          "type": "uint256"
        },
        {
          "internalType": "bool",
          "name": "countsConducted",
          "type": "bool"
        },
        {
          "internalType": "bool",
          "name": "passed",
          "type": "bool"
        }
      ],
      "stateMutability": "view",
      "type": "function"
    },
    {
      "inputs": [],
      "name": "totalVotesDown",
      "outputs": [
        {
          "internalType": "uint256",
          "name": "",
          "type": "uint256"
        }
      ],
      "stateMutability": "view",
      "type": "function"
    },
    {
      "inputs": [],
      "name": "totalVotesUp",
      "outputs": [
        {
          "internalType": "uint256",
          "name": "",
          "type": "uint256"
        }
      ],
      "stateMutability": "view",
      "type": "function"
    },
    {
      "inputs": [
        {
          "internalType": "uint256",
          "name": "_id",
          "type": "uint256"
        },
        {
          "internalType": "bool",
          "name": "_vote",
          "type": "bool"
        }
      ],
      "name": "voteOnProposal",
      "outputs": [],
      "stateMutability": "nonpayable",
      "type": "function"
    }
  ],
  "bytecode": "0x60806040523480156200001157600080fd5b50336000806101000a81548173ffffffffffffffffffffffffffffffffffffffff021916908373ffffffffffffffffffffffffffffffffffffffff1602179055506001806000828254620000669190620000cb565b925050819055506001600460003373ffffffffffffffffffffffffffffffffffffffff1673ffffffffffffffffffffffffffffffffffffffff16815260200190815260200160002060006101000a81548160ff02191690831515021790555062000161565b6000620000d88262000128565b9150620000e58362000128565b9250827fffffffffffffffffffffffffffffffffffffffffffffffffffffffffffffffff038211156200011d576200011c62000132565b5b828201905092915050565b6000819050919050565b7f4e487b7100000000000000000000000000000000000000000000000000000000600052601160045260246000fd5b6116d280620001716000396000f3fe608060405234801561001057600080fd5b506004361061009e5760003560e01c80635ee9b480116100665780635ee9b4801461013b578063772ccf5d14610157578063d4d4b5ac14610187578063da35c664146101a5578063eb3b8397146101c35761009e565b8063013cf08b146100a3578063029d010d146100db5780631614665c146100e557806319f050bd1461010157806349c2a1a61461011f575b600080fd5b6100bd60048036038101906100b89190610c85565b6101e1565b6040516100d29998979695949392919061102d565b60405180910390f35b6100e36102de565b005b6100ff60048036038101906100fa9190610cb2565b610338565b005b6101096105e7565b6040516101169190610fe9565b60405180910390f35b61013960048036038101906101349190610c3c565b6105ed565b005b61015560048036038101906101509190610c85565b6106fd565b005b610171600480360381019061016c9190610c0f565b61097c565b60405161017e9190610eae565b60405180910390f35b61018f61099c565b60405161019c9190610e93565b60405180910390f35b6101ad6109c0565b6040516101ba9190610fe9565b60405180910390f35b6101cb6109c6565b6040516101d89190610fe9565b60405180910390f35b60056020528060005260406000206000915090508060000154908060010160009054906101000a900460ff1690806002015490806003018054610223906112a4565b80601f016020809104026020016040519081016040528092919081815260200182805461024f906112a4565b801561029c5780601f106102715761010080835404028352916020019161029c565b820191906000526020600020905b81548152906001019060200180831161027f57829003601f168201915b5050505050908060040154908060050154908060060154908060080160009054906101000a900460ff16908060080160019054906101000a900460ff16905089565b6001600460003373ffffffffffffffffffffffffffffffffffffffff1673ffffffffffffffffffffffffffffffffffffffff16815260200190815260200160002060006101000a81548160ff021916908315150217905550565b6005600083815260200190815260200160002060010160009054906101000a900460ff1661039b576040517f08c379a000000000000000000000000000000000000000000000000000000000815260040161039290610f29565b60405180910390fd5b6103a4336109cc565b6103e3576040517f08c379a00000000000000000000000000000000000000000000000000000000081526004016103da90610ec9565b60405180910390fd5b6103ed8233610a3a565b1561042d576040517f08c379a000000000000000000000000000000000000000000000000000000000815260040161042490610fa9565b60405180910390fd5b6005600083815260200190815260200160002060020154431115610486576040517f08c379a000000000000000000000000000000000000000000000000000000000815260040161047d90610ee9565b60405180910390fd5b600060056000848152602001908152602001600020905081156104f4578060040160008154809291906104b890611307565b91905055508060060160008154809291906104d290611307565b9190505550600260008154809291906104ea90611307565b9190505550610541565b80600501600081548092919061050990611307565b919050555080600601600081548092919061052390611307565b91905055506003600081548092919061053b90611307565b91905055505b60018160070160003373ffffffffffffffffffffffffffffffffffffffff1673ffffffffffffffffffffffffffffffffffffffff16815260200190815260200160002060006101000a81548160ff0219169083151502179055507f97a3ed91f0b116dc155f238ac92aa5b825720a7bb096f53156e05d9c8ab6a30a816004015482600501543386866040516105da9594939291906110ff565b60405180910390a1505050565b60025481565b6105f6336109cc565b610635576040517f08c379a000000000000000000000000000000000000000000000000000000000815260040161062c90610f09565b60405180910390fd5b60006005600060015481526020019081526020016000209050600154816000018190555060018160010160006101000a81548160ff0219169083151502179055508181600301908051906020019061068e929190610abd565b5060644361069c91906111c4565b81600201819055507f714aa979410b0af635e3d28a85a5b282ef1db3f1f2052962359cbdb2c53747d160015483336040516106d9939291906110c1565b60405180910390a1600160008154809291906106f490611307565b91905055505050565b60008054906101000a900473ffffffffffffffffffffffffffffffffffffffff1673ffffffffffffffffffffffffffffffffffffffff163373ffffffffffffffffffffffffffffffffffffffff161461078b576040517f08c379a000000000000000000000000000000000000000000000000000000000815260040161078290610f49565b60405180910390fd5b6005600082815260200190815260200160002060010160009054906101000a900460ff166107ee576040517f08c379a00000000000000000000000000000000000000000000000000000000081526004016107e590610fc9565b60405180910390fd5b60056000828152602001908152602001600020600201544311610846576040517f08c379a000000000000000000000000000000000000000000000000000000000815260040161083d90610f89565b60405180910390fd5b6005600082815260200190815260200160002060080160009054906101000a900460ff16156108aa576040517f08c379a00000000000000000000000000000000000000000000000000000000081526004016108a190610f69565b60405180910390fd5b60006005600083815260200190815260200160002090508060050154816004015411156108f35760018160080160016101000a81548160ff021916908315150217905550610911565b60008160080160016101000a81548160ff0219169083151502179055505b60018160080160006101000a81548160ff0219169083151502179055507fe4fe9d06b16870012d1f4321e8af346162e76b3a6e561dcc6c4eebb726515697828260080160019054906101000a900460ff16604051610970929190611004565b60405180910390a15050565b60046020528060005260406000206000915054906101000a900460ff1681565b60008054906101000a900473ffffffffffffffffffffffffffffffffffffffff1681565b60015481565b60035481565b600060011515600460008473ffffffffffffffffffffffffffffffffffffffff1673ffffffffffffffffffffffffffffffffffffffff16815260200190815260200160002060009054906101000a900460ff1615151415610a305760019050610a35565b600090505b919050565b6000600115156005600085815260200190815260200160002060070160008473ffffffffffffffffffffffffffffffffffffffff1673ffffffffffffffffffffffffffffffffffffffff16815260200190815260200160002060009054906101000a900460ff1615151415610ab25760019050610ab7565b600090505b92915050565b828054610ac9906112a4565b90600052602060002090601f016020900481019282610aeb5760008555610b32565b82601f10610b0457805160ff1916838001178555610b32565b82800160010185558215610b32579182015b82811115610b31578251825591602001919060010190610b16565b5b509050610b3f9190610b43565b5090565b5b80821115610b5c576000816000905550600101610b44565b5090565b6000610b73610b6e84611177565b611152565b905082815260208101848484011115610b8f57610b8e6113e2565b5b610b9a848285611262565b509392505050565b600081359050610bb181611657565b92915050565b600081359050610bc68161166e565b92915050565b600082601f830112610be157610be06113dd565b5b8135610bf1848260208601610b60565b91505092915050565b600081359050610c0981611685565b92915050565b600060208284031215610c2557610c246113ec565b5b6000610c3384828501610ba2565b91505092915050565b600060208284031215610c5257610c516113ec565b5b600082013567ffffffffffffffff811115610c7057610c6f6113e7565b5b610c7c84828501610bcc565b91505092915050565b600060208284031215610c9b57610c9a6113ec565b5b6000610ca984828501610bfa565b91505092915050565b60008060408385031215610cc957610cc86113ec565b5b6000610cd785828601610bfa565b9250506020610ce885828601610bb7565b9150509250929050565b610cfb8161121a565b82525050565b610d0a8161122c565b82525050565b6000610d1b826111a8565b610d2581856111b3565b9350610d35818560208601611271565b610d3e816113f1565b840191505092915050565b6000610d566015836111b3565b9150610d6182611402565b602082019050919050565b6000610d796016836111b3565b9150610d848261142b565b602082019050919050565b6000610d9c6029836111b3565b9150610da782611454565b604082019050919050565b6000610dbf6021836111b3565b9150610dca826114a3565b604082019050919050565b6000610de26031836111b3565b9150610ded826114f2565b604082019050919050565b6000610e05602c836111b3565b9150610e1082611541565b604082019050919050565b6000610e286019836111b3565b9150610e3382611590565b602082019050919050565b6000610e4b6028836111b3565b9150610e56826115b9565b604082019050919050565b6000610e6e6021836111b3565b9150610e7982611608565b604082019050919050565b610e8d81611258565b82525050565b6000602082019050610ea86000830184610cf2565b92915050565b6000602082019050610ec36000830184610d01565b92915050565b60006020820190508181036000830152610ee281610d49565b9050919050565b60006020820190508181036000830152610f0281610d6c565b9050919050565b60006020820190508181036000830152610f2281610d8f565b9050919050565b60006020820190508181036000830152610f4281610db2565b9050919050565b60006020820190508181036000830152610f6281610dd5565b9050919050565b60006020820190508181036000830152610f8281610df8565b9050919050565b60006020820190508181036000830152610fa281610e1b565b9050919050565b60006020820190508181036000830152610fc281610e3e565b9050919050565b60006020820190508181036000830152610fe281610e61565b9050919050565b6000602082019050610ffe6000830184610e84565b92915050565b60006040820190506110196000830185610e84565b6110266020830184610d01565b9392505050565b600061012082019050611043600083018c610e84565b611050602083018b610d01565b61105d604083018a610e84565b818103606083015261106f8189610d10565b905061107e6080830188610e84565b61108b60a0830187610e84565b61109860c0830186610e84565b6110a560e0830185610d01565b6110b3610100830184610d01565b9a9950505050505050505050565b60006060820190506110d66000830186610e84565b81810360208301526110e88185610d10565b90506110f76040830184610cf2565b949350505050565b600060a0820190506111146000830188610e84565b6111216020830187610e84565b61112e6040830186610cf2565b61113b6060830185610e84565b6111486080830184610d01565b9695505050505050565b600061115c61116d565b905061116882826112d6565b919050565b6000604051905090565b600067ffffffffffffffff821115611192576111916113ae565b5b61119b826113f1565b9050602081019050919050565b600081519050919050565b600082825260208201905092915050565b60006111cf82611258565b91506111da83611258565b9250827fffffffffffffffffffffffffffffffffffffffffffffffffffffffffffffffff0382111561120f5761120e611350565b5b828201905092915050565b600061122582611238565b9050919050565b60008115159050919050565b600073ffffffffffffffffffffffffffffffffffffffff82169050919050565b6000819050919050565b82818337600083830152505050565b60005b8381101561128f578082015181840152602081019050611274565b8381111561129e576000848401525b50505050565b600060028204905060018216806112bc57607f821691505b602082108114156112d0576112cf61137f565b5b50919050565b6112df826113f1565b810181811067ffffffffffffffff821117156112fe576112fd6113ae565b5b80604052505050565b600061131282611258565b91507fffffffffffffffffffffffffffffffffffffffffffffffffffffffffffffffff82141561134557611344611350565b5b600182019050919050565b7f4e487b7100000000000000000000000000000000000000000000000000000000600052601160045260246000fd5b7f4e487b7100000000000000000000000000000000000000000000000000000000600052602260045260246000fd5b7f4e487b7100000000000000000000000000000000000000000000000000000000600052604160045260246000fd5b600080fd5b600080fd5b600080fd5b600080fd5b6000601f19601f8301169050919050565b7f6f6e6c79204d656d626572732063616e20766f74650000000000000000000000600082015250565b7f566f74696e672074696d65206861732070617373656400000000000000000000600082015250565b7f596f7520617265206e6f742061206d656d626572206f662074686973206f726760008201527f616e697a6174696f6e0000000000000000000000000000000000000000000000602082015250565b7f5468657265206973206e6f2070726f706f73616c20776974682074686973206960008201527f6400000000000000000000000000000000000000000000000000000000000000602082015250565b7f4f6e6c7920746865204368616972506572736f6e2063616e20636865636b207460008201527f68652066696e616c206465636973696f6e000000000000000000000000000000602082015250565b7f46696e616c204465636973696f6e20686173206265656e206d616465206f6e2060008201527f7468652070726f706f73616c0000000000000000000000000000000000000000602082015250565b7f446561646c696e6520686173206e6f74206265656e206d657400000000000000600082015250565b7f596f7520616c72656164792068617665206120766f7465206f6e20746869732060008201527f70726f706f73616c000000000000000000000000000000000000000000000000602082015250565b7f5468657265206973206e6f2070726f706f73616c20776974682074686174206960008201527f6400000000000000000000000000000000000000000000000000000000000000602082015250565b6116608161121a565b811461166b57600080fd5b50565b6116778161122c565b811461168257600080fd5b50565b61168e81611258565b811461169957600080fd5b5056fea264697066735822122074bbaae2b7eaab8c17972adf14d1e585fad6b1119c85faeac3fc58bfc19e8ef864736f6c63430008070033",
  "linkReferences": {},
  "deployedLinkReferences": {}
}