{
  "_format": "hh-sol-artifact-1",
  "contractName": "Votaric",
  "sourceName": "contracts/Votaric.sol",
  "abi": [
    {
      "inputs": [],
      "stateMutability": "nonpayable",
      "type": "constructor"
    },
    {
      "anonymous": false,
      "inputs": [
        {
          "indexed": false,
          "internalType": "uint256",
          "name": "id",
          "type": "uint256"
        },
        {
          "indexed": false,
          "internalType": "bool",
          "name": "passed",
          "type": "bool"
        }
      ],
      "name": "countProposal",
      "type": "event"
    },
    {
      "anonymous": false,
      "inputs": [
        {
          "indexed": false,
          "internalType": "uint256",
          "name": "votesUp",
          "type": "uint256"
        },
        {
          "indexed": false,
          "internalType": "uint256",
          "name": "votesDown",
          "type": "uint256"
        },
        {
          "indexed": false,
          "internalType": "address",
          "name": "voter",
          "type": "address"
        },
        {
          "indexed": false,
          "internalType": "uint256",
          "name": "proposal",
          "type": "uint256"
        },
        {
          "indexed": false,
          "internalType": "bool",
          "name": "votedFor",
          "type": "bool"
        }
      ],
      "name": "newVote",
      "type": "event"
    },
    {
      "anonymous": false,
      "inputs": [
        {
          "indexed": false,
          "internalType": "uint256",
          "name": "id",
          "type": "uint256"
        },
        {
          "indexed": false,
          "internalType": "string",
          "name": "description",
          "type": "string"
        },
        {
          "indexed": false,
          "internalType": "address",
          "name": "proposer",
          "type": "address"
        }
      ],
      "name": "proposalCreated",
      "type": "event"
    },
    {
      "inputs": [],
      "name": "addMember",
      "outputs": [],
      "stateMutability": "nonpayable",
      "type": "function"
    },
    {
      "inputs": [],
      "name": "chairPerson",
      "outputs": [
        {
          "internalType": "address",
          "name": "",
          "type": "address"
        }
      ],
      "stateMutability": "view",
      "type": "function"
    },
    {
      "inputs": [
        {
          "internalType": "string",
          "name": "_description",
          "type": "string"
        }
      ],
      "name": "createProposal",
      "outputs": [],
      "stateMutability": "nonpayable",
      "type": "function"
    },
    {
      "inputs": [
        {
          "internalType": "uint256",
          "name": "_id",
          "type": "uint256"
        }
      ],
      "name": "finalProposalDecision",
      "outputs": [],
      "stateMutability": "nonpayable",
      "type": "function"
    },
    {
      "inputs": [
        {
          "internalType": "address",
          "name": "",
          "type": "address"
        }
      ],
      "name": "membership",
      "outputs": [
        {
          "internalType": "bool",
          "name": "",
          "type": "bool"
        }
      ],
      "stateMutability": "view",
      "type": "function"
    },
    {
      "inputs": [],
      "name": "proposalCount",
      "outputs": [
        {
          "internalType": "uint256",
          "name": "",
          "type": "uint256"
        }
      ],
      "stateMutability": "view",
      "type": "function"
    },
    {
      "inputs": [
        {
          "internalType": "uint256",
          "name": "",
          "type": "uint256"
        }
      ],
      "name": "proposals",
      "outputs": [
        {
          "internalType": "uint256",
          "name": "id",
          "type": "uint256"
        },
        {
          "internalType": "bool",
          "name": "exists",
          "type": "bool"
        },
        {
          "internalType": "uint256",
          "name": "deadline",
          "type": "uint256"
        },
        {
          "internalType": "string",
          "name": "description",
          "type": "string"
        },
        {
          "internalType": "uint256",
          "name": "votesUp",
          "type": "uint256"
        },
        {
          "internalType": "uint256",
          "name": "votesDown",
          "type": "uint256"
        },
        {
          "internalType": "uint256",
          "name": "totalVoteCount",
          "type": "uint256"
        },
        {
          "internalType": "bool",
          "name": "countsConducted",
          "type": "bool"
        },
        {
          "internalType": "bool",
          "name": "passed",
          "type": "bool"
        }
      ],
      "stateMutability": "view",
      "type": "function"
    },
    {
      "inputs": [],
      "name": "totalVotesDown",
      "outputs": [
        {
          "internalType": "uint256",
          "name": "",
          "type": "uint256"
        }
      ],
      "stateMutability": "view",
      "type": "function"
    },
    {
      "inputs": [],
      "name": "totalVotesUp",
      "outputs": [
        {
          "internalType": "uint256",
          "name": "",
          "type": "uint256"
        }
      ],
      "stateMutability": "view",
      "type": "function"
    },
    {
      "inputs": [
        {
          "internalType": "uint256",
          "name": "_id",
          "type": "uint256"
        },
        {
          "internalType": "bool",
          "name": "_vote",
          "type": "bool"
        }
      ],
      "name": "voteOnProposal",
      "outputs": [],
      "stateMutability": "nonpayable",
      "type": "function"
    }
  ],
  "bytecode": "0x60806040523480156200001157600080fd5b50336000806101000a81548173ffffffffffffffffffffffffffffffffffffffff021916908373ffffffffffffffffffffffffffffffffffffffff1602179055506001806000828254620000669190620000cb565b925050819055506001600460003373ffffffffffffffffffffffffffffffffffffffff1673ffffffffffffffffffffffffffffffffffffffff16815260200190815260200160002060006101000a81548160ff02191690831515021790555062000161565b6000620000d88262000128565b9150620000e58362000128565b9250827fffffffffffffffffffffffffffffffffffffffffffffffffffffffffffffffff038211156200011d576200011c62000132565b5b828201905092915050565b6000819050919050565b7f4e487b7100000000000000000000000000000000000000000000000000000000600052601160045260246000fd5b6117cd80620001716000396000f3fe608060405234801561001057600080fd5b506004361061009e5760003560e01c80635ee9b480116100665780635ee9b4801461013b578063772ccf5d14610157578063d4d4b5ac14610187578063da35c664146101a5578063eb3b8397146101c35761009e565b8063013cf08b146100a3578063029d010d146100db5780631614665c146100e557806319f050bd1461010157806349c2a1a61461011f575b600080fd5b6100bd60048036038101906100b89190610d14565b6101e1565b6040516100d2999897969594939291906110ff565b60405180910390f35b6100e36102de565b005b6100ff60048036038101906100fa9190610d41565b6103c5565b005b610109610674565b60405161011691906110bb565b60405180910390f35b61013960048036038101906101349190610ccb565b61067a565b005b61015560048036038101906101509190610d14565b61078c565b005b610171600480360381019061016c9190610c9e565b610a0b565b60405161017e9190610f60565b60405180910390f35b61018f610a2b565b60405161019c9190610f45565b60405180910390f35b6101ad610a4f565b6040516101ba91906110bb565b60405180910390f35b6101cb610a55565b6040516101d891906110bb565b60405180910390f35b60056020528060005260406000206000915090508060000154908060010160009054906101000a900460ff169080600201549080600301805461022390611376565b80601f016020809104026020016040519081016040528092919081815260200182805461024f90611376565b801561029c5780601f106102715761010080835404028352916020019161029c565b820191906000526020600020905b81548152906001019060200180831161027f57829003601f168201915b5050505050908060040154908060050154908060060154908060080160009054906101000a900460ff16908060080160019054906101000a900460ff16905089565b600460003373ffffffffffffffffffffffffffffffffffffffff1673ffffffffffffffffffffffffffffffffffffffff16815260200190815260200160002060009054906101000a900460ff161561036b576040517f08c379a000000000000000000000000000000000000000000000000000000000815260040161036290610ffb565b60405180910390fd5b6001600460003373ffffffffffffffffffffffffffffffffffffffff1673ffffffffffffffffffffffffffffffffffffffff16815260200190815260200160002060006101000a81548160ff021916908315150217905550565b6005600083815260200190815260200160002060010160009054906101000a900460ff16610428576040517f08c379a000000000000000000000000000000000000000000000000000000000815260040161041f90610fdb565b60405180910390fd5b61043133610a5b565b610470576040517f08c379a000000000000000000000000000000000000000000000000000000000815260040161046790610f7b565b60405180910390fd5b61047a8233610ac9565b156104ba576040517f08c379a00000000000000000000000000000000000000000000000000000000081526004016104b19061107b565b60405180910390fd5b6005600083815260200190815260200160002060020154431115610513576040517f08c379a000000000000000000000000000000000000000000000000000000000815260040161050a90610f9b565b60405180910390fd5b6000600560008481526020019081526020016000209050811561058157806004016000815480929190610545906113d9565b919050555080600601600081548092919061055f906113d9565b919050555060026000815480929190610577906113d9565b91905055506105ce565b806005016000815480929190610596906113d9565b91905055508060060160008154809291906105b0906113d9565b9190505550600360008154809291906105c8906113d9565b91905055505b60018160070160003373ffffffffffffffffffffffffffffffffffffffff1673ffffffffffffffffffffffffffffffffffffffff16815260200190815260200160002060006101000a81548160ff0219169083151502179055507f97a3ed91f0b116dc155f238ac92aa5b825720a7bb096f53156e05d9c8ab6a30a816004015482600501543386866040516106679594939291906111d1565b60405180910390a1505050565b60025481565b61068333610a5b565b6106c2576040517f08c379a00000000000000000000000000000000000000000000000000000000081526004016106b990610fbb565b60405180910390fd5b60006005600060015481526020019081526020016000209050600154816000018190555060018160010160006101000a81548160ff0219169083151502179055508181600301908051906020019061071b929190610b4c565b506203f4804361072b9190611296565b81600201819055507f714aa979410b0af635e3d28a85a5b282ef1db3f1f2052962359cbdb2c53747d1600154833360405161076893929190611193565b60405180910390a160016000815480929190610783906113d9565b91905055505050565b60008054906101000a900473ffffffffffffffffffffffffffffffffffffffff1673ffffffffffffffffffffffffffffffffffffffff163373ffffffffffffffffffffffffffffffffffffffff161461081a576040517f08c379a00000000000000000000000000000000000000000000000000000000081526004016108119061101b565b60405180910390fd5b6005600082815260200190815260200160002060010160009054906101000a900460ff1661087d576040517f08c379a00000000000000000000000000000000000000000000000000000000081526004016108749061109b565b60405180910390fd5b600560008281526020019081526020016000206002015443116108d5576040517f08c379a00000000000000000000000000000000000000000000000000000000081526004016108cc9061105b565b60405180910390fd5b6005600082815260200190815260200160002060080160009054906101000a900460ff1615610939576040517f08c379a00000000000000000000000000000000000000000000000000000000081526004016109309061103b565b60405180910390fd5b60006005600083815260200190815260200160002090508060050154816004015411156109825760018160080160016101000a81548160ff0219169083151502179055506109a0565b60008160080160016101000a81548160ff0219169083151502179055505b60018160080160006101000a81548160ff0219169083151502179055507fe4fe9d06b16870012d1f4321e8af346162e76b3a6e561dcc6c4eebb726515697828260080160019054906101000a900460ff166040516109ff9291906110d6565b60405180910390a15050565b60046020528060005260406000206000915054906101000a900460ff1681565b60008054906101000a900473ffffffffffffffffffffffffffffffffffffffff1681565b60015481565b60035481565b600060011515600460008473ffffffffffffffffffffffffffffffffffffffff1673ffffffffffffffffffffffffffffffffffffffff16815260200190815260200160002060009054906101000a900460ff1615151415610abf5760019050610ac4565b600090505b919050565b6000600115156005600085815260200190815260200160002060070160008473ffffffffffffffffffffffffffffffffffffffff1673ffffffffffffffffffffffffffffffffffffffff16815260200190815260200160002060009054906101000a900460ff1615151415610b415760019050610b46565b600090505b92915050565b828054610b5890611376565b90600052602060002090601f016020900481019282610b7a5760008555610bc1565b82601f10610b9357805160ff1916838001178555610bc1565b82800160010185558215610bc1579182015b82811115610bc0578251825591602001919060010190610ba5565b5b509050610bce9190610bd2565b5090565b5b80821115610beb576000816000905550600101610bd3565b5090565b6000610c02610bfd84611249565b611224565b905082815260208101848484011115610c1e57610c1d6114b4565b5b610c29848285611334565b509392505050565b600081359050610c4081611752565b92915050565b600081359050610c5581611769565b92915050565b600082601f830112610c7057610c6f6114af565b5b8135610c80848260208601610bef565b91505092915050565b600081359050610c9881611780565b92915050565b600060208284031215610cb457610cb36114be565b5b6000610cc284828501610c31565b91505092915050565b600060208284031215610ce157610ce06114be565b5b600082013567ffffffffffffffff811115610cff57610cfe6114b9565b5b610d0b84828501610c5b565b91505092915050565b600060208284031215610d2a57610d296114be565b5b6000610d3884828501610c89565b91505092915050565b60008060408385031215610d5857610d576114be565b5b6000610d6685828601610c89565b9250506020610d7785828601610c46565b9150509250929050565b610d8a816112ec565b82525050565b610d99816112fe565b82525050565b6000610daa8261127a565b610db48185611285565b9350610dc4818560208601611343565b610dcd816114c3565b840191505092915050565b6000610de5601583611285565b9150610df0826114d4565b602082019050919050565b6000610e08601683611285565b9150610e13826114fd565b602082019050919050565b6000610e2b602983611285565b9150610e3682611526565b604082019050919050565b6000610e4e602183611285565b9150610e5982611575565b604082019050919050565b6000610e71601883611285565b9150610e7c826115c4565b602082019050919050565b6000610e94603183611285565b9150610e9f826115ed565b604082019050919050565b6000610eb7602c83611285565b9150610ec28261163c565b604082019050919050565b6000610eda601983611285565b9150610ee58261168b565b602082019050919050565b6000610efd602883611285565b9150610f08826116b4565b604082019050919050565b6000610f20602183611285565b9150610f2b82611703565b604082019050919050565b610f3f8161132a565b82525050565b6000602082019050610f5a6000830184610d81565b92915050565b6000602082019050610f756000830184610d90565b92915050565b60006020820190508181036000830152610f9481610dd8565b9050919050565b60006020820190508181036000830152610fb481610dfb565b9050919050565b60006020820190508181036000830152610fd481610e1e565b9050919050565b60006020820190508181036000830152610ff481610e41565b9050919050565b6000602082019050818103600083015261101481610e64565b9050919050565b6000602082019050818103600083015261103481610e87565b9050919050565b6000602082019050818103600083015261105481610eaa565b9050919050565b6000602082019050818103600083015261107481610ecd565b9050919050565b6000602082019050818103600083015261109481610ef0565b9050919050565b600060208201905081810360008301526110b481610f13565b9050919050565b60006020820190506110d06000830184610f36565b92915050565b60006040820190506110eb6000830185610f36565b6110f86020830184610d90565b9392505050565b600061012082019050611115600083018c610f36565b611122602083018b610d90565b61112f604083018a610f36565b81810360608301526111418189610d9f565b90506111506080830188610f36565b61115d60a0830187610f36565b61116a60c0830186610f36565b61117760e0830185610d90565b611185610100830184610d90565b9a9950505050505050505050565b60006060820190506111a86000830186610f36565b81810360208301526111ba8185610d9f565b90506111c96040830184610d81565b949350505050565b600060a0820190506111e66000830188610f36565b6111f36020830187610f36565b6112006040830186610d81565b61120d6060830185610f36565b61121a6080830184610d90565b9695505050505050565b600061122e61123f565b905061123a82826113a8565b919050565b6000604051905090565b600067ffffffffffffffff82111561126457611263611480565b5b61126d826114c3565b9050602081019050919050565b600081519050919050565b600082825260208201905092915050565b60006112a18261132a565b91506112ac8361132a565b9250827fffffffffffffffffffffffffffffffffffffffffffffffffffffffffffffffff038211156112e1576112e0611422565b5b828201905092915050565b60006112f78261130a565b9050919050565b60008115159050919050565b600073ffffffffffffffffffffffffffffffffffffffff82169050919050565b6000819050919050565b82818337600083830152505050565b60005b83811015611361578082015181840152602081019050611346565b83811115611370576000848401525b50505050565b6000600282049050600182168061138e57607f821691505b602082108114156113a2576113a1611451565b5b50919050565b6113b1826114c3565b810181811067ffffffffffffffff821117156113d0576113cf611480565b5b80604052505050565b60006113e48261132a565b91507fffffffffffffffffffffffffffffffffffffffffffffffffffffffffffffffff82141561141757611416611422565b5b600182019050919050565b7f4e487b7100000000000000000000000000000000000000000000000000000000600052601160045260246000fd5b7f4e487b7100000000000000000000000000000000000000000000000000000000600052602260045260246000fd5b7f4e487b7100000000000000000000000000000000000000000000000000000000600052604160045260246000fd5b600080fd5b600080fd5b600080fd5b600080fd5b6000601f19601f8301169050919050565b7f6f6e6c79204d656d626572732063616e20766f74650000000000000000000000600082015250565b7f566f74696e672074696d65206861732070617373656400000000000000000000600082015250565b7f596f7520617265206e6f742061206d656d626572206f662074686973206f726760008201527f616e697a6174696f6e0000000000000000000000000000000000000000000000602082015250565b7f5468657265206973206e6f2070726f706f73616c20776974682074686973206960008201527f6400000000000000000000000000000000000000000000000000000000000000602082015250565b7f596f752061726520616c72656164792061206d656d6265720000000000000000600082015250565b7f4f6e6c7920746865204368616972506572736f6e2063616e20636865636b207460008201527f68652066696e616c206465636973696f6e000000000000000000000000000000602082015250565b7f46696e616c204465636973696f6e20686173206265656e206d616465206f6e2060008201527f7468652070726f706f73616c0000000000000000000000000000000000000000602082015250565b7f446561646c696e6520686173206e6f74206265656e206d657400000000000000600082015250565b7f596f7520616c72656164792068617665206120766f7465206f6e20746869732060008201527f70726f706f73616c000000000000000000000000000000000000000000000000602082015250565b7f5468657265206973206e6f2070726f706f73616c20776974682074686174206960008201527f6400000000000000000000000000000000000000000000000000000000000000602082015250565b61175b816112ec565b811461176657600080fd5b50565b611772816112fe565b811461177d57600080fd5b50565b6117898161132a565b811461179457600080fd5b5056fea2646970667358221220163f6831a0a11b0e7759d335abd8f6dcf8973c8e3f5fb30af896f5d61e4c239764736f6c63430008070033",
  "linkReferences": {},
  "deployedLinkReferences": {}
}